:100000000C9462000C948A000C948A000C948A0070
:100010000C948A000C948A000C948A000C948A0038
:100020000C948A000C948A000C948A000C948A0028
:100030000C948A000C948A000C948A000C948A0018
:100040000C9477040C948A000C948A000C948A0017
:100050000C948A000C948A000C948A000C948A00F8
:100060000C948A000C948A000000000024002700F1
:100070002A0000000000250028002B0000000000DE
:1000800023002600290004040404040404040202DA
:100090000202020203030303030301020408102007
:1000A0004080010204081020010204081020000012
:1000B0000008000201000003040700000000000027
:1000C00000001E0811241FBECFEFD8E0DEBFCDBF59
:1000D00011E0A0E0B1E0E2E5F5E102C005900D928B
:1000E000A239B107D9F722E0A2E9B1E001C01D921F
:1000F000A832B207E1F710E0C2E6D0E004C02197D1
:10010000FE010E94A10AC136D107C9F70E94C104AD
:100110000C94A70A0C94000096E0899FD00111244A
:10012000AF55BE4F90967C936E935F9791E09196FA
:100130009C939197E0910E02F0910F0290910D0225
:10014000992339F0309751F0811108C08091BD0199
:100150000994309719F05C968C91FACF0895CF925C
:10016000DF92EF92FF920F931F9396E0899FF00129
:100170001124EF55FE4F11A2278D30A121303105FA
:1001800051F178F02230310509F451C023303105A6
:1001900009F452C01F910F91FF90EF90DF90CF9024
:1001A00008956623B9F361E070E00E948C002FB7D8
:1001B000F89480919D0190919E01A0919F01B09132
:1001C000A0012FBF8093F9019093FA01A093FB0146
:1001D000B093FC01DFCF9FB7F894C0909D01D09001
:1001E0009E01E0909F01F090A0019FBF0091F90156
:1001F0001091FA012091FB013091FC01C01AD10A43
:10020000E20AF30A00910B0210910C0230E020E0A8
:100210000C151D052E053F0550F462E070E01F919E
:100220000F91FF90EF90DF90CF900C948C006111B4
:10023000B1CF63E070E0F3CF70E060E0F0CF8330E7
:1002400081F028F4813099F08230A9F00895873048
:10025000A9F08830C9F08430B1F4809180008F7D9E
:1002600003C0809180008F7780938000089584B5CB
:100270008F7784BD089584B58F7DFBCF8091B000CA
:100280008F778093B00008958091B0008F7DF9CF73
:10029000CF93DF93282F30E0F901E255FF4F84918F
:1002A000F901E656FF4FD491F901EA57FF4FC49187
:1002B000CC23A1F081110E941F01EC2FF0E0EE0F82
:1002C000FF1FE458FF4FA591B491EC91ED2381E01D
:1002D00090E009F480E0DF91CF91089580E090E014
:1002E000FACF1F93CF93DF93282F30E0F901E25527
:1002F000FF4F8491F901E656FF4FD491F901EA5777
:10030000FF4FC491CC23A9F0162F81110E941F0129
:10031000EC2FF0E0EE0FFF1FEE58FF4FA591B491C8
:100320008FB7F894EC91111108C0D095DE23DC93BF
:100330008FBFDF91CF911F910895DE2BF8CFCF9320
:10034000DF9390E0FC01E656FF4F24918A579F4FC0
:10035000FC0184918823C9F090E0880F991FFC016B
:10036000E859FF4FA591B491FC01EE58FF4FC5919C
:10037000D49161110DC09FB7F8948C912095822380
:100380008C938881282328839FBFDF91CF91089584
:10039000623051F49FB7F8943C91822F809583236B
:1003A0008C93E8812E2BEFCF8FB7F894EC912E2B06
:1003B0002C938FBFEACF1F93CF93DF93182FEB01BE
:1003C00061E00E949F01209739F460E0812FDF9166
:1003D000CF911F910C947101CF3FD10511F461E0D1
:1003E000F5CFE12FF0E0E255FF4FE491E33031F13A
:1003F00040F4E130B1F0E230E1F0C038D1057CF7F3
:10040000E4CFE73029F1E83059F1E430B1F78091D9
:100410008000806280938000D0938B00C0938A001C
:1004200004C084B5806884BDC7BDDF91CF911F91A2
:10043000089584B5806284BDC8BDF7CF80918000E7
:10044000806880938000D0938900C0938800EDCFAE
:100450008091B00080688093B000C093B300E5CF76
:100460008091B00080628093B000C093B400DDCF73
:100470003FB7F8948091990190919A01A0919B01C6
:10048000B0919C0126B5A89B05C02F3F19F001969D
:10049000A11DB11D3FBFBA2FA92F982F8827BC01DE
:1004A000CD01620F711D811D911D42E0660F771F06
:1004B000881F991F4A95D1F70895862F642F0C94B1
:1004C0009F01862F642F0C947101862F0C94480194
:1004D000AF92BF92CF92DF92EF92FF920F931F9352
:1004E000CF93DF936C017B018B01040F151FEB0190
:1004F0005E01AE18BF08C017D10759F06991D60147
:10050000ED91FC910190F081E02DC6010995892BB8
:1005100079F7C501DF91CF911F910F91FF90EF9077
:10052000DF90CF90BF90AF900895089590E080E065
:1005300008958F929F92AF92BF920F931F93CF9384
:10054000DF93CDB7DEB7A1970FB6F894DEBF0FBE2D
:10055000CDBF19A2423008F44AE08E010F5D1F4F53
:10056000842E912CB12CA12CA50194010E94CD08C0
:10057000E62FB901CA01EA3044F5E05DD801EE93F7
:100580008D01232B242B252B79F790E080E0109709
:1005900069F0FD0101900020E9F73197AF014A1B96
:1005A0005B0BBD0180E192E00E946802A1960FB64C
:1005B000F894DEBF0FBECDBFDF91CF911F910F9199
:1005C000BF90AF909F908F900895E95CD7CFFC01CA
:1005D00001900020E9F73197AF01481B590BBC018E
:1005E00080E192E00C946802CF93DF93EC0160E02D
:1005F0008E810E94710161E08E810E94710160E034
:100600008E810E9471018BE891E00197F1F7DF91F3
:10061000CF910895CF92DF92EF92FF920F931F93A5
:10062000CF93DF936C017C0187E0E80EF11CD0E0F2
:10063000C0E0062F10E0B8010C2E02C0759567953A
:100640000A94E2F76170F70181917F010E947101C4
:100650002196C430D10579F7C601DF91CF911F9162
:100660000F91FF90EF90DF90CF900C94F402CF9217
:10067000DF92EF92FF920F931F93CF93DF93EC01E2
:10068000F62E642F8C810E9471018D818F3F19F0AD
:1006900060E00E9471010F2D10E08F8584FF25C05E
:1006A0006E0187E0C80ED11CF12CE12CB8010E2C94
:1006B00002C0759567950A94E2F76170F601819121
:1006C0006F010E947101FFEFEF1AFF0A88E0E81640
:1006D000F10461F7CE01DF91CF911F910F91FF904F
:1006E000EF90DF90CF900C94F402B80184E0759500
:1006F00067958A95E1F7CE010E940A036F2DCE011E
:10070000DF91CF911F910F91FF90EF90DF90CF90ED
:100710000C940A0340E0682F80E192E00C943703C8
:1007200081E00E948A038BE39FE10197F1F708952E
:10073000CF93DF93823029F490911F0298609093B9
:100740001F02809323021092240280E480932502EA
:1007500080E18093260280E58093270261E080910A
:1007600014020E949F01809115028F3F19F061E0F1
:100770000E949F0161E0809116020E949F01C0E1EA
:10078000D2E09E012051324080911F0284FD0BC0B7
:1007900084E090E021962817390744F461E08E81C7
:1007A0000E949F01EECF88E090E0F4CF8BE39DE0C4
:1007B0000197F1F760E0809114020E94710160E0FE
:1007C000809116020E947101809115028F3F19F0ED
:1007D00060E00E94710180911F0284FD34C063E0DB
:1007E00080E192E00E940A03CBE4D6E4CE010197B7
:1007F000F1F763E080E192E00E940A032197F1F7AC
:1008000063E080E192E00E940A0383E592E00197B1
:10081000F1F762E080E192E00E940A0380911F02FA
:1008200080620E948A0384E0809320028CE00E9410
:100830008A030E94900382E08093210286E0DF9188
:10084000CF910C948A0380620E948A038BE496E421
:100850000197F1F780911F0280620E948A0383E56D
:1008600092E00197F1F780911F0280620E948A0353
:10087000D5CF90912302691710F06FEF690FE62F23
:10088000F0E0E05FFD4F9489890F80680C948A0343
:1008900041E00E94370381E090E00895CF92DF921B
:1008A000EF92FF926C01990FEE08FF08F7FE16C059
:1008B00041E06DE280E192E00E94370366277727EE
:1008C000CB016C197D098E099F094AE00E949902AB
:1008D0000196FF90EF90DF90CF9008954AE0C70116
:1008E000B601FF90EF90DF90CF900C9499021F9289
:1008F0000F920FB60F9211242F933F938F939F93D4
:10090000AF93BF9380919D0190919E01A0919F0113
:10091000B091A0013091980123E0230F2D3758F5B5
:100920000196A11DB11D2093980180939D01909384
:100930009E01A0939F01B093A00180919901909195
:100940009A01A0919B01B0919C010196A11DB11D3E
:100950008093990190939A01A0939B01B0939C017D
:10096000BF91AF919F918F913F912F910F900FBEAB
:100970000F901F90189526E8230F0296A11DB11D18
:10098000D2CF789484B5826084BD84B5816084BD03
:1009900085B5826085BD85B5816085BD80916E001D
:1009A000816080936E00109281008091810082604E
:1009B000809381008091810081608093810080918B
:1009C00080008160809380008091B100846080937A
:1009D000B1008091B00081608093B00080917A0076
:1009E000846080937A0080917A00826080937A009C
:1009F00080917A00816080937A0080917A0080688B
:100A000080937A001092C10061E087E00E949F010C
:100A100061E086E00E949F0161E085E00E949F0105
:100A200061E084E00E949F0161E083E00E949F01F9
:100A300061E082E00E949F0161E081E00E949F01ED
:100A400061E086E00E949F016091920170919301A4
:100A500086E00E94DB0180E40E948A03C8E1D1E0C5
:100A600000E211E0699180E192E00E9448040C17D5
:100A70001D07C1F782E00E94980360E080E00E94B9
:100A800039048AE391E00E94E70261E080E00E947D
:100A9000390481E491E00E94E70235E0432E512CB5
:100AA000612C712C42E0242E312C81E080930D02C8
:100AB0008FB7F89440919D0150919E0160919F01E4
:100AC0007091A0018FBF8091FD019091FE01A091D6
:100AD000FF01B0910002481B590B6A0B7B0B809100
:100AE000090290910A02B0E0A0E084179507A607DA
:100AF000B70708F0B7C1C0E080910702C81760F4DB
:100B0000E0910302F0910402EC0FF11D62E080819C
:100B10000E949F01CF5FF0CF912C80910802981620
:100B200008F061C0092D10E0E0910502F091060285
:100B3000E00FF11F61E080810E949F01E0910502BA
:100B4000F0910602E00FF11F60E080810E947101C8
:100B500081E090E0A0E0B0E0092C04C0880F991F6C
:100B6000AA1FBB1F0A94D2F75C017C01E094F094A9
:100B7000812C809107028816F8F4C82DD0E0E0910E
:100B80000302F0910402EC0FFD1F80810E944801D6
:100B90002496CC0FDD1FCF55DE4F892B41F4888181
:100BA00099818A299B29998388838394E2CF8881BC
:100BB00099818E219F21F7CFE0910502F0910602E5
:100BC000E00FF11F61E080810E94710180910502B8
:100BD00090910602080F191F60E0F80180810E94C1
:100BE0009F0193949ACFC1EAD1E0FE01878D90A135
:100BF000892B31F4148E8FEF9FEF968F858F11A282
:100C0000369691E0ED3DF90789F710E080910702F3
:100C1000181708F053C000E0E12EF12CEE0CFF1C79
:100C2000F701E755FE4F7F0120910802021708F0F7
:100C300043C0F70160817181002E02C076956795EF
:100C40000A94E2F7129F90011124200F311DE1EA6E
:100C5000F1E080E0458D568D2417350709F4ECC18D
:100C60008F5F36968A30B1F760FF24C0E1EAF1E089
:100C700090E080E0448D411118C0E0910102F091B4
:100C80000202E20FF31F408156E0589FF001599F86
:100C9000F00D1124EF55FE4F448F368F258F10A293
:100CA000178E61E00E94AF0005C0019636968A302B
:100CB000910501F70F5FB8CF1F5FA8CF80E099A122
:100CC0009111892F269691E0CD3DD907C1F79FB7A5
:100CD000F89440919D0150919E0160919F01709107
:100CE000A0019FBF4093FD015093FE016093FF015F
:100CF00070930002882309F4B5C08091C201882353
:100D000009F4B0C08091C0019091C101019709F030
:100D1000A9C08091BD0120919601309197012130A9
:100D2000310509F4E1C00CF0A1C0232B09F4C0C0C7
:100D300060E086E00E9439048DE491E00E94E702C1
:100D400080E480937C0080917A00806480937A00B4
:100D500080917A0086FDFCCF6091780070917900D7
:100D6000072E000C880B990B0E94A80926EF38E289
:100D70004CE950E40E94340A20E030E040E251E4C3
:100D80000E94FE080E9470094B01709395016093C8
:100D9000940160E086E00E943904C4010E944E0480
:100DA00060E080E192E00E9448042091940130913B
:100DB0009501C9014497069708F0F8C03092930155
:100DC0002092920162E070E086E00E94DB0161E027
:100DD00082E00E94710160E083E00E94710160E0A6
:100DE00081E00E94710161E08CE00E9439048CE492
:100DF00091E00E94E70261E08CE00E94390480915A
:100E00009201909193010E944E040E9438026B015E
:100E10007C0188EE882E83E0982EA12CB12C0E94B4
:100E200038026C197D098E099F09683E734081055F
:100E30009105A8F3F1E08F1A9108A108B10828EEF6
:100E4000C20E23E0D21EE11CF11C81149104A10406
:100E5000B10429F780E090E0892B09F426CE0E94A6
:100E6000000023CE10920D0280E055CF25303105D1
:100E700009F463C02630310509F05ACF90ED980F80
:100E80009A3008F083C040912201509123019AE0EA
:100E9000949F9001959F300D1124082E000C990B02
:100EA000C097820F931F909323018093220140CF1C
:100EB000803309F03DCFE1E0F0E0F0939701E0935B
:100EC00096010E94900360E080E00E94390480E572
:100ED00091E00E94E70261E080E00E94390482E62E
:100EE00091E00E94E70224CF813391F0823309F030
:100EF0001FCF83E090E090939701809396010E942A
:100F0000900360E080E00E94390487E891E00CC023
:100F100030929701209296010E94900360E080E059
:100F20000E9439048DE691E00E94E70261E080E0D2
:100F30000E9439048AE791E0D4CF90ED980F9A305F
:100F4000A8F440912001509121019AE0949F9001D2
:100F5000959F300D1124082E000C990BC097820F1D
:100F6000931F9093210180932001E2CE833209F0F8
:100F7000DFCE6091200190E080E00E949508E1E0E2
:100F8000F0E0F0939701E0939601D2CE833209F01E
:100F9000CFCE6091220181E090E00E94950881E02F
:100FA00090E09093970180939601C2CEC9014A9731
:100FB000049718F5032E000C440B550B29513109E9
:100FC00041095109ADEFB0E00E94C208A3019201AE
:100FD0000E94A308CA01B9016E5F7F4F8F4F9F4FD8
:100FE000709393016093920186E00E94DB0160E0C0
:100FF00082E00E94710161E0EFCE2E3131054CF0AC
:10100000EFEFF0E0F0939301E09392016FEF70E067
:10101000EBCF109293011092920170E060E086E0B5
:101020000E94DB0160E082E00E94710160E083E0E9
:101030000E94710161E0D4CE617034CE109213022F
:101040001092120282E391E09093110280931002B9
:101050008DE0809314028FEF809315028CE08093D3
:1010600016028BE0809317028AE08093180289E0D1
:101070008093190288E080931A0210921B0210924A
:101080001C0210921D0210921E0210921F0281E09B
:101090000E9498031092A3011092A7011092A6013A
:1010A0001092A80188E291E09093A2018093A1019F
:1010B000EDEBF1E01082148213821582369681E006
:1010C000E93FF807B9F784E091E090930402809338
:1010D000030280E091E0909306028093050284E091
:1010E000809307028093080288E091E090930202C7
:1010F000809301028AE090E090930A0280930902B3
:1011000084EF91E090930C0280930B0210920F02F7
:1011100010920E021092FD011092FE011092FF013A
:101120001092000210920D020895262FF999FECF19
:101130001FBA92BD81BD20BD0FB6F894FA9AF99AF4
:101140000FBE01960895052E97FB1EF400940E9491
:10115000BA0857FD07D00E94CD0807FC03D04EF413
:101160000C94BA0850954095309521953F4F4F4FBC
:101170005F4F089590958095709561957F4F8F4F43
:101180009F4F08950E94EF08A59F900DB49F900D6A
:10119000A49F800D911D11240895A1E21A2EAA1B6F
:1011A000BB1BFD010DC0AA1FBB1FEE1FFF1FA21717
:1011B000B307E407F50720F0A21BB30BE40BF50B14
:1011C000661F771F881F991F1A9469F7609570959D
:1011D000809590959B01AC01BD01CF010895A29F20
:1011E000B001B39FC001A39F700D811D1124911DFB
:1011F000B29F700D811D1124911D08950E94120946
:101200000C94FA090E94F30958F00E94EC0940F08E
:1012100029F45F3F29F00C94E30951110C942E0A34
:101220000C94E9090E940B0A68F39923B1F3552342
:1012300091F3951B550BBB27AA27621773078407E9
:1012400038F09F5F5F4F220F331F441FAA1FA9F37F
:1012500035D00E2E3AF0E0E832D091505040E6956D
:10126000001CCAF72BD0FE2F29D0660F771F881FCE
:10127000BB1F261737074807AB07B0E809F0BB0BC1
:10128000802DBF01FF2793585F4F3AF09E3F5105D5
:1012900078F00C94E3090C942E0A5F3FE4F3983E37
:1012A000D4F3869577956795B795F7959F5FC9F7BE
:1012B000880F911D9695879597F90895E1E0660F3F
:1012C000771F881FBB1F621773078407BA0720F0B8
:1012D000621B730B840BBA0BEE1F88F7E095089521
:1012E0000E9477096894B1110C942E0A08950E9407
:1012F000130A88F09F5798F0B92F9927B751B0F08B
:10130000E1F0660F771F881F991F1AF0BA95C9F789
:1013100014C0B13091F00E942D0AB1E008950C94F0
:101320002D0A672F782F8827B85F39F0B93FCCF3A3
:10133000869577956795B395D9F73EF49095809506
:10134000709561957F4F8F4F9F4F0895E89409C026
:1013500097FB3EF490958095709561957F4F8F4FE8
:101360009F4F9923A9F0F92F96E9BB279395F695FE
:10137000879577956795B795F111F8CFFAF4BB0F7C
:1013800011F460FF1BC06F5F7F4F8F4F9F4F16C0E0
:10139000882311F096E911C0772321F09EE8872F6A
:1013A000762F05C0662371F096E8862F70E060E026
:1013B0002AF09A95660F771F881FDAF7880F96959F
:1013C000879597F9089597F99F6780E870E060E046
:1013D00008959FEF80EC089500240A9416161706CE
:1013E00018060906089500240A9412161306140616
:1013F00005060895092E0394000C11F4882352F079
:10140000BB0F40F4BF2B11F460FF04C06F5F7F4F30
:101410008F4F9F4F089557FD9058440F551F59F017
:101420005F3F71F04795880F97FB991F61F09F3FD1
:1014300079F087950895121613061406551FF2CFFA
:101440004695F1DF08C0161617061806991FF1CF4A
:1014500086957105610508940895E894BB27662771
:101460007727CB0197F908950E94470A0C94FA094F
:101470000E94EC0938F00E94F30920F0952311F046
:101480000C94E3090C94E90911240C942E0A0E948F
:101490000B0A70F3959FC1F3950F50E0551F629FA3
:1014A000F001729FBB27F00DB11D639FAA27F00DBD
:1014B000B11DAA1F649F6627B00DA11D661F829FE4
:1014C0002227B00DA11D621F739FB00DA11D621FC9
:1014D000839FA00D611D221F749F3327A00D611DE6
:1014E000231F849F600D211D822F762F6A2F1124C8
:1014F0009F5750409AF0F1F088234AF0EE0FFF1FFB
:10150000BB1F661F771F881F91505040A9F79E3F51
:10151000510580F00C94E3090C942E0A5F3FE4F32C
:10152000983ED4F3869577956795B795F795E795A7
:101530009F5FC1F7FE2B880F911D9695879597F9B0
:101540000895EE0FFF1F0590F491E02D0994F89493
:02155000FFCFCB
:101552001211100F05040013313233413435364273
:10156200373839432A3023440609090600000000AF
:101572001E001400000000005D026102650200000E
:101582000000480468029602950254656D703A2084
:101592000046616E2053706565643A202020200069
:1015A200312E204F7065726174696F6E204D6F64C9
:1015B2006500322E20416D6269656E7400414D42B4
:1015C20049454E54204D4F4445004465736372694A
:1015D2007074696F6E3A0048454154204D4F44453E
:0215E200000007
:00000001FF
